:100000000C94E0040C9408050C9408050C94080565
:100010000C9408050C9408050C9408050C9408052C
:100020000C9408050C9408050C9408050C9408051C
:100030000C9408050C9408050C9408050C9408050C
:100040000C94AB2E0C9408050C94B5310C94E7314C
:100050000C9408050C9408050C9408050C940805EC
:100060000C9408050C94080572656164456570720E
:100070006F6D4D656D6F7279506167653A7061673C
:100080006553697A653A00443A200030780061642B
:1000900064724C6F773A00443A2000307800616413
:1000A0006472486967683A00443A20007265616486
:1000B00050726F6772616D4D656D6F7279506167D7
:1000C000653A7061676553697A653A00443A200081
:1000D0003078004F75744F6653796E632062333AFF
:1000E00000453A20003078004F75744F6653796EA2
:1000F000632062323A00453A20004D4355204F7547
:10010000744F6653796E632100453A20004D435584
:10011000202150726F674D6F646500453A20004D95
:10012000435520496E20504D4F44452100453A200B
:1001300000633A00443A200030780040707240007A
:10014000443A200030780063616C63756C617465BB
:10015000643A00443A200030780065787065637432
:1001600065643A00443A200057726F6E672043522C
:10017000432100443A20003078004070724000442F
:100180003A200063726300443A20003078004070E7
:10019000724000443A20006461746100443A2000D7
:1001A000307800626164213A00443A2000307800DF
:1001B0004070724000443A20007479706500443AFF
:1001C0002000616464723A00443A200030780040B4
:1001D00070724000443A2000616464724C00443AFA
:1001E00020003078004070724000443A2000616482
:1001F00064724800443A2000746F6F20626967207F
:100200006C696E6520646174612100453A2000309C
:1002100078004070724000443A20003078006261FB
:100220006453746172743A00443A2000726C300076
:10023000443A2000726561644C696E6500443A205E
:10024000004F70656E65642066696C653A00493AD6
:100250002000216F70656E3A00443A200046696CB8
:10026000652065786973747321206F766572726991
:1002700064652070726F74656374696F6E213A00F3
:10028000443A20003A0045524D3A0030780050611F
:1002900067652072656164206661696C6564210030
:1002A000453A2000454550524F4D506167653A2010
:1002B00000493A20002320706167652073697A65E0
:1002C0003A20002320706167657320636F756E7438
:1002D0003A20002320454550524F4D204D454D4F6B
:1002E000525900230023003A0050524D3A00307812
:1002F00000506167652072656164206661696C65A4
:10030000642100453A2000504D506167653A200055
:10031000493A20002320706167652073697A653A45
:1003200020002320706167657320636F756E743AD7
:100330002000232050524F4752414D4D204D454DF6
:100340004F5259002300434C423A00307800434C4E
:100350004252544E206661696C65642100453A2022
:10036000004546423A0030780045585446555345BA
:1003700042495453206661696C65642100453A2006
:10038000004648423A0030780046555345484947B0
:100390004842495453206661696C65642100453ABE
:1003A00020004653423A00307800465553454249B2
:1003B0005453206661696C65642100453A20004C05
:1003C0004B423A003078004C4F434B424954532043
:1003D0006661696C65642100453A200053474E3AD6
:1003E000004D444C3A003078004D6F64656C2072CB
:1003F000656164206661696C65642100453A20008E
:100400003078005369672072656164206661696CA9
:1004100065642100453A20005459503A4156520033
:100420005449443A0023204155544F47454E4552C4
:10043000415445442046494C450021777269746512
:1004400046696C6500443A20004E657874206672F7
:1004500065652066696C653A00443A2000666F75F0
:100460006E6400443A2000636865636B696E673AA6
:1004700000443A200057726F6E672066696C6520F1
:1004800070726566207573656400443A2000446F9D
:100490006E652100493A200053554343455353218B
:1004A00000493A200054455354494E472100493AE7
:1004B000200053756363657373206261636B696EBB
:1004C000672D75702100493A20003078004572721E
:1004D0006F72206261636B696E672D7570210045D4
:1004E0003A20004261636B757020746F2066696CFE
:1004F000652E2E2E00493A20005374617274656493
:100500002070726F672100493A200050726F674572
:100510006E206661696C65642100453A2000507266
:100520006F6749643A00493A200030780067657483
:1005300050726F67496400453A2000436F6D6D61EA
:100540006E643A00493A2000534420696E69742071
:100550006661696C65642100453A200024242452B8
:10056000414D3A00443A200048617070792074652A
:100570007374696E67206461792100493A20003004
:1005800078006C74343A00493A2000307800746581
:1005900073744865785F726C343A00453A200030D5
:1005A00078006C74333A00493A2000307800746562
:1005B00073744865785F726C333A00453A200030B6
:1005C00078006C74323A00493A2000307800746543
:1005D00073744865785F726C323A00453A20003097
:1005E00078006C74313A00493A2000307800746524
:1005F00073744865785F726C313A00453A20003078
:1006000078006275665B305D5B335D3A00493A2085
:10061000003078006C74303A00493A20003078009D
:10062000746573744865785F726C303A00453A209F
:1006300000307800746573744865785F6F70656E1C
:100640003A00453A200048656C6C6F20576F726C19
:10065000642100443A200074313A00443A20007486
:100660004600443A2000743400443A2000743300B9
:10067000443A2000743200443A2000743100443A75
:10068000200030780041637475616C204352433A16
:100690002000443A200030780043616C63756C613F
:1006A000746564204352433A2000443A2000307875
:1006B00000646174615B5D00443A20004865782005
:1006C000524F4D20646174613A2000443A2000305A
:1006D000780046616D696C7920636F64653A20002B
:1006E000443A20002D204465766963652070726568
:1006F00073656E74202D00443A20003078004070FD
:10070000724000443A20003078004070724000444B
:100710003A20003078004070724000443A200030A7
:1007200078006E6F742030413A00443A20006E6FBA
:100730002030412100443A200030780063320044E8
:100740003A20003078004070724000443A20003077
:100750007800633100443A200030780040707240E5
:1007600000443A2000726561644865784279746596
:100770005F454F4C5F636F727275707465640044BF
:100780003A200072656164486578427974655F4516
:100790004F4C00443A20003078007265616448652F
:1007A00078427974655F323A00443A20003078002C
:1007B00072656164486578427974655F313A0044D6
:1007C0003A20006973454F4C00443A2000534420BE
:1007D000696E697420646F6E6500493A2000534465
:1007E00020696E6974206661696C65642100453A10
:1007F0002000496E69742D67205344206361726440
:100800002E2E2E00493A2000737472616E67653097
:1008100000443A20003078003200443A200030781A
:10082000003100443A20003078007369676E4D69EA
:1008300073736D617463683A3000443A2000307815
:100840000042616420633A00443A20007C3C3E5EF2
:100850002B3D3F2F5B5D3B2C2A225C00005EBCE2FF
:10086000613FDD83C29C7E20A3FD1F419DC3217F8C
:10087000FCA2401E5F01E3BD3E6082DC237D9FC180
:10088000421CFEA0E1BF5D0380DE3C62BEE0025C74
:10089000DF81633D7C22C09E1D43A1FF4618FAA460
:1008A00027799BC584DA3866E5BB5907DB8567394C
:1008B000BAE406581947A5FB7826C49A653BD98740
:1008C000045AB8E6A7F91B45C6987A24F8A6441A34
:1008D00099C7257B3A6486D85B05E7B98CD2306E20
:1008E000EDB3510F4E10F2AC2F7193CD114FADF30C
:1008F000702ECC92D38D6F31B2EC0E50AFF1134D00
:10090000CE90722C6D33D18F0C52B0EE326C8ED0F3
:10091000530DEFB1F0AE4C1291CF2D73CA947628DF
:10092000ABF517490856B4EA6937D58B5709EBB5CB
:1009300036688AD495CB2977F4AA4816E9B7550BBF
:1009400088D6346A2B7597C94A14F6A8742AC896B3
:10095000154BA9F7B6E80A54D7896B350000000893
:100960000002010000030407000000000000000076
:100970000102040810204080010204081020010236
:100980000408102004040404040404040202020203
:1009900002020303030303030000000023002600F8
:1009A000290000000000250028002B0000000000A6
:1009B000240027002A00B707AE107E1FC32217327B
:1009C00011241FBECFEFD8E0DEBFCDBF11E0A0E005
:1009D000B1E0E2E9F1E702C005900D92AE3AB1074D
:1009E000D9F725E0AEEAB1E001C01D92AB3AB207FB
:1009F000E1F719E0C0ECD9E004C02297FE010E94A3
:100A00000536C63BD107C9F70E945B320C94C73844
:100A10000C940000FB011082DA011C92D9011C9297
:100A2000803129F48AE0808383E0FA010DC08731A8
:100A300021F09DEE980F923010F488E005C08B7F76
:100A400081518230D0F38AE08083089561E083E0B1
:100A50000E94D82F61E089E00E94D82F60E083E0F7
:100A60000E94113060E089E00E94113061E085E071
:100A70000E94D82F60E086E00E94D82F61E087E0D6
:100A80000E94D82F61E088E00E94D82F60E085E0C6
:100A90000E94113060E087E00E94113061E088E040
:100AA0000C94113061E088E00E94113060E085E034
:100AB0000E94113060E087E00E94113060E083E026
:100AC0000E94113060E089E00E9411301092AF0165
:100AD0001092AE0108950F931F93CF93DF93082FC9
:100AE00018E0C0E8D0E08C2F802311F460E001C052
:100AF00061E085E00E94113082E090E00E944C2F7E
:100B000061E087E00E94113086E090E00E944C2F67
:100B100086E00E944730892B09F0DC2B82E090E0D0
:100B20000E944C2F60E087E00E94113086E090E048
:100B30000E944C2FC6951150B1F68D2FDF91CF91A9
:100B40001F910F9108951F93CF93DF93EC011882AB
:100B50008091AF01882371F06DE271E08AE095E049
:100B60000E94A8326FE171E08AE095E00E94E632CF
:100B700087E139C061E083E00E94113061E089E0E3
:100B80000E94113061E088E00E94113063E070E063
:100B900080E090E00E94242F60E088E00E94113005
:100BA0006EE170E080E090E00E94242F8CEA0E94C9
:100BB0006B0583E50E946B0580E00E946B05182F92
:100BC00080E00E946B0591E09093AF01133529F40A
:100BD000811101C090E0892F01C081E08093AE01B6
:100BE000882311F081E18883DF91CF911F910895CF
:100BF000DF92EF92FF920F931F93CF93DF931F9299
:100C0000CDB7DEB7E82EF62ED22EF80110828091F5
:100C1000AF0181110EC06BE171E08AE095E00E94A6
:100C2000A8326DE071E08AE095E00E94E63283E14F
:100C300039C08091AE01882371F069E071E08AE0EB
:100C400095E00E94A8326AEF70E08AE095E00E9489
:100C5000E63284E127C08E2D49830E946B058F2DDB
:100C60000E946B0549818E1549F181E08093AE01A8
:100C700066EF70E08AE095E00E94A83268EE70E0CE
:100C80008AE095E00E94A83265EE70E08AE095E087
:100C90000E94A83240E150E06E2D8AE095E00E946B
:100CA000FE3385E1F801808380E00F90DF91CF91E2
:100CB0001F910F91FF90EF90DF900895842F0E9475
:100CC0006B058F15F1F081E08093AE0161EE70E06D
:100CD0008AE095E00E94A83263ED70E08AE095E03A
:100CE0000E94A83260ED70E08AE095E00E94A83290
:100CF00040E150E06F2D8AE095E00E94FE3386E1EE
:100D0000D1CF8D2D0F90DF91CF911F910F91FF903B
:100D1000EF90DF900C946B05AF92BF92CF92DF9271
:100D2000EF92FF920F931F93CF93DF93C42F79011C
:100D30004230B9F067E870E08AE095E00E94A8329E
:100D400068E670E08AE095E00E94A8324AE050E050
:100D50006C2F8AE095E00E94FE3380E1F7018083EA
:100D60001DC0A62EA294A694A69423E0A222F4E08D
:100D70006F9F60011124EC01B12C870120E04B2D05
:100D80004C296A2D80EA0E94F8058993F701808139
:100D9000811104C0B394F4E0BF12EFCFDF91CF9183
:100DA0001F910F91FF90EF90DF90CF90BF90AF9089
:100DB0000895EF92FF920F931F93CF93DF937C01DF
:100DC000EB018B0120E040E060E080E30E94F80549
:100DD000F70180838881811113C020E041E060E049
:100DE00080E30E94F805F70181838881811108C0A2
:100DF00020E042E060E080E30E94F805F701828392
:100E0000DF91CF911F910F91FF90EF9008956F9216
:100E10007F928F929F92AF92BF92CF92DF92EF928A
:100E2000FF920F931F93CF93DF93142FE9012CEFC1
:100E3000240F2330B0F06CEC70E08AE095E00E9463
:100E4000A8326CEA70E08AE095E00E94A8324AE09D
:100E500050E0612F8AE095E00E94FE3380E18883B4
:100E600077C0E62FF0E028E030E0241B3109AF0125
:100E700002C0559547952A95E2F7742E4F01012E31
:100E800001C0880C0A94EAF7AA24A394B12C02C0EA
:100E9000AA0CBB1C1A95E2F76C015FEFC51AD50AC4
:100EA000E12CF12C6E2C682868EA70E08AE095E06D
:100EB0000E94A8326EE970E08AE095E00E94A832B4
:100EC0006BE970E08AE095E00E94A83240E150E0D2
:100ED000672D8AE095E00E94FE3367E970E08AE0C2
:100EE00095E00E94A8326EE870E08AE095E00E94EA
:100EF000A8326BE870E08AE095E00E94A83240E1F9
:100F000050E0662D8AE095E00E94FE338E0120E0DD
:100F1000462D672D80E20E94F805F6013197808307
:100F20008881811115C020E0462D672D88E20E943E
:100F3000F805F6018083F2E0CF0ED11C8881811183
:100F400007C02FEFE21AF20AEA14FB040CF4AACF4E
:100F5000DF91CF911F910F91FF90EF90DF90CF9095
:100F6000BF90AF909F908F907F906F90089580EB8F
:100F700091E00C94561DAF92BF92CF92DF92EF9208
:100F8000FF920F931F93CF93DF93CDB7DEB76B978D
:100F90000FB6F894DEBF0FBECDBF8C017B015A01A6
:100FA0006901F9011082FB014081518121E06CEA65
:100FB00072E0CE0101960E94F01E8B819C81F801A7
:100FC000938382838D819E81AF81B885848395834D
:100FD000A683B78389859A85AB85BC8580879187F1
:100FE000A287B3878DE0FE013D96D8011C96019043
:100FF0000D928A95E1F78A8D9B8DF801928F818FF2
:10100000F3E1AF16B10409F045C0C8010E94CA1D42
:10101000811113C060E872E08AE095E00E94A83276
:101020006DE572E08AE095E00E94A832B7018AE09F
:1010300095E00E94F83280E944C0F7014081518177
:1010400023E16CEA72E0CE0101960E94F01E8B81D2
:101050009C81F801938382838D819E81AF81B885C5
:1010600084839583A683B78349855A856B857C8560
:1010700040875187628773878DE0FE013D96D801D6
:101080001C9601900D928A95E1F78A8D9B8DF8014F
:10109000928F818FC8010E94CA1D811115C069E518
:1010A00072E08AE095E00E94A83262E572E08AE090
:1010B00095E00E94A832B7018AE095E00E94F832DC
:1010C00081E9F601808311C06EE472E08AE095E068
:1010D0000E94A83261E472E08AE095E00E94A832A2
:1010E000B7018AE095E00E94F8326B960FB6F8944B
:1010F000DEBF0FBECDBFDF91CF911F910F91FF904B
:10110000EF90DF90CF90BF90AF9008959091CB017A
:10111000582F48E06CE8292F30E035952795952722
:1011200090FF03C0962F922701C0922F56954150F1
:1011300091F79093CB0108954F925F927F928F9297
:101140009F92AF92BF92CF92DF92EF92FF920F9356
:101150001F93CF93DF9300D0CDB7DEB75C014B0177
:101160002A01722E1092CB016DE372E08AE095E0C5
:101170000E94A83264E372E08AE095E00E94E632C1
:10118000BE016E5F7F4FC5010E94A31A81110DC081
:1011900060E372E08AE095E00E94A8326CE272E0BF
:1011A0008AE095E00E94E632C8C18A818A33B1F0B4
:1011B00068E272E08AE095E00E94A8326EE172E097
:1011C0008AE095E00E94A8326BE172E08AE095E047
:1011D0000E94A83240E150E06A8194C1B601C50185
:1011E0000E94C01B0E948608F8018083F60190814E
:1011F000992379F067E172E08AE095E00E94A832D5
:1012000062E172E08AE095E00E94A8326FE072E04D
:1012100071C1781680F46BE072E08AE095E00E947C
:10122000A83268EF71E08AE095E00E94A8324AE0B7
:1012300050E0F80166C164EF71E08AE095E00E9439
:10124000A8326EEE71E08AE095E00E94E632B601C7
:10125000C5010E94C01B0E948608F701108281838D
:10126000F6018081882379F06AEE71E08AE095E0EA
:101270000E94A83265EE71E08AE095E00E94A832F3
:1012800062EE71E037C16EED71E08AE095E00E9498
:10129000A83268ED71E08AE095E00E94E632B6017E
:1012A000C5010E94C01B0E948608F7012081318180
:1012B000282B31832083F6018081882379F064ED27
:1012C00071E08AE095E00E94A8326FEC71E08AE05C
:1012D00095E00E94A8326CEC71E00CC168EC71E002
:1012E0008AE095E00E94A83262EC71E08AE095E025
:1012F0000E94A832F701608171814AE050E08AE0E3
:1013000095E00E94D9336EEB71E08AE095E00E948F
:10131000A83269EB71E08AE095E00E94E632B601FE
:10132000C5010E94C01B0E948608F4018083F6015B
:101330009081992379F065EB71E08AE095E00E9455
:10134000A83260EB71E08AE095E00E94A8326DEA75
:1013500071E0D0C08230B0F069EA71E08AE095E0D7
:101360000E94A83263EA71E08AE095E00E94A83208
:1013700060EA71E08AE095E00E94A83240E150E026
:10138000F401BFC06CE971E08AE095E00E94A832E8
:1013900067E971E08AE095E00E94E6321A828A816C
:1013A000F8019081891710F57201E80EF11CB60161
:1013B000C5010E94C01B0E948608F7018083F601C8
:1013C0008081882379F063E971E08AE095E00E94EA
:1013D000A8326EE871E08AE095E00E94A8326BE8DE
:1013E00071E088C08A818F5F8A83D9CF67E871E016
:1013F0008AE095E00E94A83263E871E08AE095E017
:101400000E94E632B601C5010E94C01B8983F60125
:101410009081992379F06FE771E08AE095E00E946E
:10142000A8326AE771E08AE095E00E94A83267E797
:1014300071E060C09091CB01891709F43FC063E768
:1014400071E08AE095E00E94A83268E671E08AE0E7
:1014500095E00E94E63264E671E08AE095E00E9441
:10146000A8326AE571E08AE095E00E94A83267E55B
:1014700071E08AE095E00E94A83240E150E0698185
:101480008AE095E00E94FE3363E571E08AE095E032
:101490000E94A83267E471E08AE095E00E94A832D9
:1014A00064E471E08AE095E00E94A83240E150E0F7
:1014B0006091CB018AE095E00E94FE339601AE0177
:1014C0004F5F5F4FBE016E5F7F4FC5010E94E71BFC
:1014D000F60180818823D9F060E471E08AE095E02C
:1014E0000E94A8326BE371E08AE095E00E94A83286
:1014F00068E371E08AE095E00E94A83240E150E0A4
:10150000F60160818AE095E00E94FE3316C0998161
:101510008091A702981315C064E371E08AE095E01A
:101520000E94A83261E371E08AE095E00E94A8324F
:101530006A818AE095E00E941C338FE9F60180837E
:1015400002C0F60110820F900F90DF91CF911F9192
:101550000F91FF90EF90DF90CF90BF90AF909F9052
:101560008F907F905F904F90089560E083E10E949C
:10157000D82F60E082E10E94D82F60E082E00C94D6
:10158000D82FCF9385E090E00E944C2F83E10E94FA
:10159000922FC1E0883C91050CF0C0E082E10E94EE
:1015A000922F883C91050CF4C26082E00E94473083
:1015B000892B09F4C4608C2FCF91089580FD60932E
:1015C000CF0181FD6093CE0182FD6093CD0183FD4B
:1015D0006093CC010895CF93C82FCC2309F44EC05B
:1015E0008091CF01882341F061E083E10E94D82FF0
:1015F00061E083E10E9411308091CD01882341F0A8
:1016000061E082E10E94D82F60E082E10E94113007
:101610006AE070E080E090E00E94242F60E083E1C7
:101620000E94D82F60E082E10E94D82F8091CE01E5
:10163000882341F061E083E10E94D82F60E083E1DC
:101640000E9411308091CC01882341F061E082E159
:101650000E94D82F61E082E10E9411306AE070E0C0
:1016600080E090E00E94242F60E083E10E94D82F68
:1016700060E082E10E94D82FC150AFCFCF91089592
:101680000E94C10A811104C081E00E94EB0AF8CFD8
:1016900008950F931F938A0120E040E00E94F8050F
:1016A0001F910F910895CF93DF93FB01DA01108210
:1016B0001C92E9011882803521F48AE0808382E05F
:1016C00017C0813521F482E0808387E011C0823524
:1016D00021F482E0808386E00BC0833521F482E030
:1016E000808384E005C0843539F482E0808383E020
:1016F0008C93DF91CF9108959AE09083DF91CF9101
:101700000C940A05CF93DF93EB012A813B81FC0106
:10171000338322834C815D816E817F814483558335
:1017200066837783488559856A857B85408751879D
:10173000628773872DE0FE013C96DC011C960190C8
:101740000D922A95E1F7298D3A8DFC01328F218F78
:10175000DF91CF9108954F925F926F927F928F9217
:101760009F92AF92BF92CF92DF92EF92FF920F9330
:101770001F93CF93DF93CDB7DEB7EF970FB6F894F3
:10178000DEBF0FBECDBF5C016B01FB011082FC010F
:1017900084819581059780F06AE874E08AE095E09D
:1017A0000E94A83265E774E08AE095E00E94E63284
:1017B00080E5F601808377C16EE971E0CE01CA96BB
:1017C0000E9483340CE211E080E1E82E87E2F82EDB
:1017D0009AE0892E912C24E6622E712CC801B40166
:1017E0000E94AE352B014AE0BC01CE014C960E940E
:1017F000F234C201B4010E94AE354AE0BC01CE0110
:1018000082960E94F234C801B3010E94AE35CB012A
:10181000B4010E94AE354AE0BC01CE0188960E9418
:10182000F2344AE060E070E0CE01C4960E94F234E7
:10183000B501CE018E960E94D134BE016C5C7F4F03
:10184000CE018E960E947435BE01685D7F4F0E9466
:101850007435BE016E5D7F4F0E947435BE01645EBB
:101860007F4F0E9474356DE071E00E948735BC01A6
:10187000CE0101960E94D134BE016F5F7F4FCE0131
:10188000CA960E94BA34CE0101960E941534CE0148
:101890008E960E941534CE01C4960E941534CE0156
:1018A00088960E941534CE0182960E941534CE018E
:1018B0004C960E94153461E774E08AE095E00E943E
:1018C000A83267E674E08AE095E00E94A832BE0183
:1018D000665C7F4F8AE095E00E94F8324AAD5BADCE
:1018E00021E06CEA72E0CE0101960E94F01EBE017A
:1018F0006F5F7F4F80ED91E00E94820B80ED91E061
:101900000E94CA1D8823D1F063E674E08AE095E066
:101910000E94A8326DE574E08AE095E00E94A8324A
:101920004AE050E0B8018AE095E00E94D933F0E146
:10193000EF16F7E2FF0641F483E5AFC0C801019757
:10194000780111F08C014ACF0AE010E0C701B8011C
:101950000E94AE354B014AE0BC01CE014C960E947C
:10196000F234C401B8010E94AE354AE0BC01CE0198
:1019700082960E94F234C70164E670E00E94AE35A0
:10198000CB01B8010E94AE354AE0BC01CE01889679
:101990000E94F234C70168EE73E00E94AE354AE05F
:1019A000CE01C4960E94F234B501CE018E960E94FB
:1019B000D134BE016C5C7F4FCE018E960E9474358F
:1019C000BE01685D7F4F0E947435BE016E5D7F4F22
:1019D0000E947435BE01645E7F4F0E9474356DE0D5
:1019E00071E00E948735BC01CE0101960E94D1347E
:1019F000BE016F5F7F4FCE01CA960E94BA34CE01FE
:101A000001960E941534CE018E960E941534CE01A7
:101A1000C4960E941534CE0188960E941534CE01DA
:101A200082960E941534CE014C960E94153469E5C9
:101A300074E08AE095E00E94A83269E474E08AE0EC
:101A400095E00E94A832BE01665C7F4F8AE095E077
:101A50000E94F8324AAD5BAD23E16CEA72E0CE0140
:101A600001960E94F01EBE016F5F7F4F80ED91E0F6
:101A70000E94820B80ED91E00E94CA1D81110FC06F
:101A800065E474E08AE095E00E94A8326AE374E0BD
:101A90008AE095E00E94E63282E5F6018083CE017D
:101AA000CA960E941534EF960FB6F894DEBF0FBEAB
:101AB000CDBFDF91CF911F910F91FF90EF90DF90FD
:101AC000CF90BF90AF909F908F907F906F905F90DE
:101AD0004F9008952F923F924F925F926F927F9214
:101AE0008F929F92AF92BF92CF92DF92EF92FF922E
:101AF0000F931F93CF93DF93CDB7DEB72A970FB61F
:101B0000F894DEBF0FBECDBF6C01162FA42E922E0F
:101B10004DB65EB665E274E080ED91E00E94E6327B
:101B200060E274E080ED91E00E94A832B60180EDA1
:101B300091E00E940A3368E174E080ED91E00E9438
:101B4000E632B701CE0107960E94D906F7018081DF
:101B50008823B9F064E174E08AE095E00E94A8323D
:101B600063E074E08AE095E00E94A83260E074E0EF
:101B70008AE095E00E94A83240E150E0F7016081E0
:101B80001FC0B701CE0107960E942719D82EF70172
:101B900080818823D1F06CEF73E08AE095E00E94A9
:101BA000A83269EE73E08AE095E00E94A83266EE02
:101BB00073E08AE095E00E94A83240E150E06D2D8C
:101BC0008AE095E00E94FE334BC261EE73E0CE01E5
:101BD00001960E943F354D2DBE016F5F7F4F80ED16
:101BE00091E00E948B1ACE0101960E9415346CED93
:101BF00073E080ED91E00E94A8326F8180ED91E06A
:101C00000E944D1A688580ED91E00E944D1A698509
:101C100080ED91E00E944D1A80ED91E00E94E23249
:101C2000A70160E088E50E94490BD82EF70180816A
:101C3000882379F068ED73E08AE095E00E94A8328D
:101C400067EC73E08AE095E00E94A83264EC73E0F0
:101C5000B0CF6FEB73E0CE0101960E943F354D2D62
:101C6000BE016F5F7F4F80ED91E00E948B1ACE0125
:101C700001960E941534A70160E080E50E94490B9F
:101C8000D82EF7018081882379F06BEB73E08AE02E
:101C900095E00E94A8326AEA73E08AE095E00E942B
:101CA000A83267EA73E085CF62EA73E0CE0101965D
:101CB0000E943F354D2DBE016F5F7F4F80ED91E05B
:101CC0000E948B1ACE0101960E941534A70168E08C
:101CD00088E50E94490BD82EF7018081882379F08E
:101CE0006EE973E08AE095E00E94A83269E873E04B
:101CF0008AE095E00E94A83266E873E05ACF61E876
:101D000073E0CE0101960E943F354D2DBE016F5FFD
:101D10007F4F80ED91E00E948B1ACE0101960E94C8
:101D20001534A70168E080E50E94490BD82EF70121
:101D30008081882379F06DE773E08AE095E00E9466
:101D4000A83269E673E08AE095E00E94A83266E670
:101D500073E02FCF61E673E0CE0101960E943F351C
:101D60004D2DBE016F5F7F4F80ED91E00E948B1A79
:101D7000CE0101960E941534A70160E088E30E941D
:101D8000490B882EF7018081882379F06DE573E097
:101D90008AE095E00E94A8326EE473E08AE095E064
:101DA0000E94A8326BE473E034C166E473E0CE01B4
:101DB00001960E943F35482DBE016F5F7F4F80ED39
:101DC00091E00E948B1ACE0101960E94153464E4C2
:101DD00073E080ED91E00E94E63262E373E080ED13
:101DE00091E00E94E63262E273E080ED91E00E94B1
:101DF000A832CC24C394D12CC60102C0880F991FED
:101E0000AA94E2F75C014AE050E0BC0180ED91E069
:101E10000E94D93364E173E080ED91E00E94A83222
:101E2000612E712CB601012E02C0660F771F0A9435
:101E3000E2F74AE050E080ED91E00E94D9339FEF55
:101E4000691A790A01C0CC0C6A94EAF7CA86C12CD7
:101E5000D12CCA14DB040CF058C060E173E08AE0B6
:101E600095E00E94A83267E073E08AE095E00E9466
:101E7000A8324AE050E0B6018AE095E00E94D933EA
:101E80009701412F6C2D8BEE91E00E940707F7011F
:101E90008081882379F063E073E08AE095E00E9416
:101EA000A83261EF72E08AE095E00E94A8326EEEFF
:101EB00072E0AFC069EE72E080ED91E00E94A8325E
:101EC0006C2D80ED91E00E94241A67EE72E080EDA7
:101ED00091E00E94A8324BEE242E41E0342E3101D5
:101EE000862D8219FA858F1740F4F30161913F0125
:101EF00080ED91E00E944D1AF3CF80ED91E00E94B9
:101F0000E2328FEFC81AD80AA4CF65EE72E080EDF6
:101F100091E00E94E63263EE72E080ED91E00E9473
:101F2000E63263ED72E080ED91E00E94E63263EC10
:101F300072E080ED91E00E94A83266246394712CD7
:101F4000F30102C0EE0FFF1F0A95E2F78F014AE08E
:101F500050E0BF0180ED91E00E94D93365EB72E063
:101F600080ED91E00E94A832092C02C0660C771C1B
:101F70000A94E2F74AE050E0B30180ED91E00E945C
:101F8000D9338DB79EB7861997090FB6F8949EBFBF
:101F90000FBE8DBFEDB7FEB731965F01C12CD12CBE
:101FA000362C2E2E07C080ED91E00E94E232FFEF2A
:101FB000CF1ADF0AC016D1060CF052C061EB72E0F6
:101FC0008AE095E00E94A83264EA72E08AE095E037
:101FD0000E94A8324AE050E0B6018AE095E00E94F3
:101FE000D9339701492D6C2DC5010E948C06F7014C
:101FF00080818823B1F060EA72E08AE095E00E9477
:10200000A8326EE872E08AE095E00E94A8326BE8A0
:1020100072E08AE095E00E94A83240E150E0682D2D
:10202000CFCD66E872E080ED91E00E94A8326C2D81
:1020300080ED91E00E94241A64E872E080ED91E066
:102040000E94A8323501862D8219831508F0ABCF86
:10205000F30161913F0180ED91E00E944D1AF3CFB1
:1020600080ED91E00E94B81D0FB6F8945EBE0FBEE1
:102070004DBE2A960FB6F894DEBF0FBECDBFDF91DE
:10208000CF911F910F91FF90EF90DF90CF90BF9075
:10209000AF909F908F907F906F905F904F903F9008
:1020A0002F900895AF92BF92CF92DF92EF92FF925E
:1020B0000F931F93CF93DF93CDB7DEB72A970FB659
:1020C000F894DEBF0FBECDBF5B016A01BC01CE013B
:1020D00001960E94D134B601CE0101960E94AB0B4D
:1020E000CE0101960E941534F6018081811125C030
:1020F000B601CE0101960E94D906F60180818111B8
:102100001CC076018E01095F1F4F9E01285F3F4F63
:10211000AE01475F5F4FBE01665F7F4FCE01019604
:102120000E949A19F6018081811107C00F812885CC
:1021300049856A85C5010E946A0D2A960FB6F894F2
:10214000DEBF0FBECDBFDF91CF911F910F91FF90EA
:10215000EF90DF90CF90BF90AF90089580ED91E029
:102160000C94561DCF92DF92EF92FF920F931F9324
:10217000CF93DF93CDB7DEB7E0970FB6F894DEBF0D
:102180000FBECDBF18AACE0101960E94561D64E174
:1021900071E0CE014C960E9483349E01205D3F4F3A
:1021A00041E050E0BE01645E7F4FCE0101960E9487
:1021B000BB07CE014C960E94153488A98823C9F02C
:1021C00062E476E08AE095E00E94A83264E376E07B
:1021D0008AE095E00E94A83261E376E08AE095E02B
:1021E0000E94A83240E150E068A98AE095E00E9490
:1021F000FE33CE01C0966C0104977C018E01025D16
:102200001F4F20E1AE01445E5F4FBE01615D7F4F15
:102210008B970E949C0888A98823C9F06DE276E01C
:102220008AE095E00E94A83260E276E08AE095E0DC
:102230000E94A8326DE176E08AE095E00E94A83223
:1022400040E150E068A98AE095E00E94FE3369E130
:1022500076E08AE095E00E94A83264E176E08AE0C8
:1022600095E00E94A83261E176E08AE095E00E9464
:10227000A83240E150E06FA58AE095E00E94FE336D
:102280006DE076E08AE095E00E94A83262E076E0B8
:102290008AE095E00E94A8326FEF75E08AE095E051
:1022A0000E94A83240E150E06F8D8AE095E00E94E4
:1022B000FE33CE01C0966C0104977C018E01025D55
:1022C0001F4F20E1AE01445E5F4FBE01615D7F4F55
:1022D0008B970E949C0888A98823C9F06BEF75E052
:1022E0008AE095E00E94A8326EEE75E08AE095E003
:1022F0000E94A8326BEE75E08AE095E00E94A83259
:1023000040E150E068A98AE095E00E94FE3367EE64
:1023100075E08AE095E00E94A83262EE75E08AE0FE
:1023200095E00E94A8326FED75E08AE095E00E948A
:10233000A83240E150E06FA58AE095E00E94FE33AC
:10234000CE01C0966C0104977C018E01025D1F4F87
:1023500020E1AE01445E5F4FBE01615D7F4F8B9710
:102360000E949C0888A98823C9F06BED75E08AE07B
:1023700095E00E94A8326EEC75E08AE095E00E943C
:10238000A8326BEC75E08AE095E00E94A83240E14B
:1023900050E068A98AE095E00E94FE3367EC75E0A2
:1023A0008AE095E00E94A83262EC75E08AE095E050
:1023B0000E94A8326FEB75E08AE095E00E94A83297
:1023C00040E150E06FA58AE095E00E94FE33CE0127
:1023D000C0966C0104977C018E01025D1F4F20E1C5
:1023E000AE01445E5F4FBE01615D7F4F8B970E94DF
:1023F0009C0888A98823C9F06BEB75E08AE095E01A
:102400000E94A8326EEA75E08AE095E00E94A83248
:102410006BEA75E08AE095E00E94A83240E150E066
:1024200068A98AE095E00E94FE3367EA75E08AE0D9
:1024300095E00E94A83262EA75E08AE095E00E9489
:10244000A8326FE975E08AE095E00E94A83240E189
:1024500050E06FA58AE095E00E94FE33CE01C09661
:102460006C0104977C018E01025D1F4F20E1AE01DB
:10247000445E5F4FBE01615D7F4F8B970E949C0859
:1024800088A98823C9F06BE975E08AE095E00E948D
:10249000A8326EE875E08AE095E00E94A8326BE809
:1024A00075E08AE095E00E94A83240E150E068A91A
:1024B0008AE095E00E94FE3367E875E08AE095E0E7
:1024C0000E94A83262E875E08AE095E00E94A83296
:1024D0006FE775E08AE095E00E94A83240E150E0A5
:1024E0006FA58AE095E00E94FE336BE775E08AE015
:1024F00095E00E94A83268E675E08AE095E00E94C7
:10250000E63264E675E08AE095E00E94A8326CE568
:1025100075E08AE095E00E94A8320E94D5184AE052
:1025200050E0BC018AE095E00E94D933E0960FB6F6
:10253000F894DEBF0FBECDBFDF91CF911F910F91F9
:10254000FF90EF90DF90CF900895C0E0D0E0062F8D
:1025500010E0E42EF12CC82ED12C0E94C10A882351
:1025600071F0C017D10724F461E082E00E94DE0A16
:10257000CE15DF0524F461E088E00E94DE0ACC1568
:10258000DD0524F461E084E00E94DE0A8FE00E9411
:10259000EB0A60E084E00E94DE0A60E082E00E94D4
:1025A000DE0A60E088E00E94DE0A8FE00E94EB0A0B
:1025B0002196C431D1058CF2C0E0D0E0CECF0F938C
:1025C0001F93CF93DF93813039F0823039F001E0EF
:1025D000843029F000E003C003E001C002E0C0E065
:1025E000D0E010E0C017D10784F461E088E00E94D9
:1025F000DE0A84E10E94EB0A60E088E00E94DE0AC5
:1026000084E10E94EB0A2196EDCFDF91CF911F91DB
:102610000F910895CF93DF93CDB7DEB76A970FB6CA
:10262000F894DEBF0FBECDBF1A8E0E94F119811142
:1026300010C068E575E08AE095E00E94A83268E481
:1026400075E08AE095E00E94E63240E060E082E0DA
:102650005FC064EF71E080E090E00E94242F61E0B1
:1026600081E00E94DE0A0E94400B182F60E081E0AA
:102670000E94DE0A64E475E08AE095E00E94A832D8
:102680006BE375E08AE095E00E94A8324AE050E0F2
:10269000612F8AE095E00E94FE3364EF71E080E0F4
:1026A00090E00E94242FAE01465E5F4FBE01675E40
:1026B0007F4FCE0101960E941B188A8D882351F10D
:1026C00067E375E08AE095E00E94A8326DE275E06C
:1026D0008AE095E00E94A8326AE275E08AE095E01F
:1026E0000E94A83240E150E06A8D8AE095E00E94A5
:1026F000FE339E012F5E3F4FAE01495E5F4FBE012C
:10270000685E7F4F8A8D0E94861449896F89888D03
:102710000E94A51266E275E08AE095E00E94A83268
:102720006EE175E08AE095E00E94A832BE016F5F1D
:102730007F4F8AE095E00E940A33898D882321F03B
:1027400061E082E00E94DE0A89E10E94EB0A812FAB
:102750000E94DF1282E30E94EB0ACE014A960E9499
:10276000A3058A8D882391F06AE175E08AE095E0FF
:102770000E94A8326BE075E08AE095E00E94E632A4
:102780000E94520540E060E081E0C2CF67E075E062
:102790008AE095E00E94A83269EF74E08AE095E053
:1027A0000E94E63268EC70E080E090E00E94242F06
:1027B000143009F052C065EF74E08AE095E00E94A1
:1027C000A83263EE74E08AE095E00E94E63260E2AF
:1027D00071E0CE0141960E948334AE01465E5F4FA8
:1027E000BE016F5F7F4FCE0141960E945210CE0115
:1027F00041960E9415348A8D882331F16FED74E083
:102800008AE095E00E94A8326DEC74E08AE095E0E1
:102810000E94A8326AEC74E08AE095E00E94A83237
:1028200040E150E06A8D8AE095E00E94FE339E010F
:102830002F5E3F4FAE01495E5F4FBE01685E7F4F26
:102840008A8D0E94530B61CF66EC74E08AE095E0BC
:102850000E94A83262EB74E01AC01230E1F46EEA12
:1028600074E08AE095E00E94A83265EA74E08AE0AC
:1028700095E00E94E6320E9452050E94B21061EA81
:1028800074E08AE095E00E94A83268E974E08AE08A
:1028900095E00E94E6320E94520564E974E08AE005
:1028A00095E00E94A8326EE874E08AE095E00E940C
:1028B000E63261E088E00E94DE0A81E00E94EB0AD5
:1028C000FCCF10926B0263E576E08AE095E00E940F
:1028D000A83266E476E08AE095E00E94E6320E9443
:1028E00026050E94B50A04E121E140E16FE08EE097
:1028F0000E94A71426E040E855E260E070E08AE01C
:1029000095E00E9453310E940A130895FB01108242
:10291000FA011082F9011082803629F48AE0FB0165
:10292000808387E00FC0883629F48AE0FB0180832A
:1029300081E008C09FE9980F9C3038F493E0FB01D8
:1029400090838F70FA01808308950C94B718FF92DA
:102950000F931F93CF93DF93F82EC62F142FD22FF0
:1029600060E00E94D82F60E08C2F0E94D82F60E09A
:10297000812F0E94D82F60E08D2F0E94D82F60E019
:10298000802F0E94D82FF092A602C093A502109328
:10299000A402D093A3020093A202DF91CF911F91D2
:1029A0000F91FF9008950F931F93CF93DF93EC0146
:1029B000188260E08091A6020E94D82F15E685E07B
:1029C00090E00E944C2F8091A6020E94922F1150FD
:1029D00081F1883E93409CF361E08091A6020E94C1
:1029E000D82F60E08091A6020E94113082EC91E025
:1029F0000E944C2F60E08091A6020E94D82F8CE3A9
:102A000090E00E944C2F8091A6020E94922F8C0190
:102A100080E991E00E944C2F083E83E018072CF4D7
:102A20000531110524F085E6888380E007C081E048
:102A300005C0883E934084F684E6F6CFDF91CF91BF
:102A40001F910F910895FF920F931F93CF93DF93E0
:102A5000F82EFB01108261E08091A6020E94D82F1F
:102A6000C0E0D0E001E010E098010C2E01C0220F80
:102A70000A94EAF72F2160E08091A602222371F0E8
:102A80000E9411308AE090E00E944C2F61E080911A
:102A9000A6020E94113087E390E00DC00E94113021
:102AA00081E490E00E944C2F61E08091A6020E9498
:102AB000113085E090E00E944C2F2196C830D1055E
:102AC00099F660E08091A602DF91CF911F910F915E
:102AD000FF900C94D82FFF920F931F93CF93DF9307
:102AE000FC011082C0E0D0E0F12C61E08091A602F0
:102AF0000E94D82F60E08091A6020E94113083E0EE
:102B000090E00E944C2F60E08091A6020E94D82F96
:102B100086E090E00E944C2F8091A6020E944730F0
:102B20008C0181E290E00E944C2F0130110531F4BC
:102B30000C2E01C0000F0A94EAF7F02A2196C83043
:102B4000D10599F68F2DDF91CF911F910F91FF90B5
:102B50000895BF92CF92DF92EF92FF920F931F934F
:102B6000CF93DF938C01EB01CB010E94D3149881AA
:102B70009111B5C0882309F4B2C067EF76E08AE00E
:102B800095E00E94A83264EE76E08AE095E00E942B
:102B9000E632BE0183E30E942315888181119FC024
:102BA000CE010E946B15F80180838881811197C046
:102BB00060EE76E08AE095E00E94A83262ED76E071
:102BC0008AE095E00E94A8326FEC76E08AE095E01A
:102BD0000E94A83240E150E0F80161917F018AE053
:102BE00095E00E94FE336BEC76E08AE095E00E946F
:102BF000A8326CEB76E08AE095E00E94E63286E04F
:102C0000B82ECE010E946B156701F7018083888181
:102C1000811165C068EB76E08AE095E00E94A832F9
:102C200061EB76E08AE095E00E94A8326EEA76E0F9
:102C30008AE095E00E94A832FFEFEF1AFF0A40E118
:102C400050E0F60160818AE095E00E94FE33BA947C
:102C5000C1F6CE010E946B15F8018783888181112E
:102C60003EC067E0C8010E949F2EF82E6AEA76E017
:102C70008AE095E00E94A83269E976E08AE095E072
:102C80000E94A83266E976E08AE095E00E94A832C8
:102C900040E150E06F2D8AE095E00E94FE3362E94A
:102CA00076E08AE095E00E94A83265E876E08AE066
:102CB00095E00E94A83262E876E08AE095E00E9402
:102CC000A83240E150E0F80167818AE095E00E9477
:102CD000FE33F80187818F1521F083E6888380E039
:102CE00001C081E0DF91CF911F910F91FF90EF9094
:102CF000DF90CF90BF900895CF93DF93EB011882C0
:102D00000E94922F009709F45EC09C012150310966
:102D10002639310548F46EE776E08AE095E00E94B6
:102D2000A8326BE776E048C09C0127593109263963
:102D3000310508F44AC0265931092639310548F4CD
:102D400067E776E08AE095E00E94A83264E776E0E3
:102D500033C09C01235C314026393105C0F126592E
:102D600031092639310548F460E776E08AE095E0DC
:102D70000E94A8326DE676E01FC09C012F5E3240B3
:102D80002639310530F1265931092A37310548F401
:102D900069E676E08AE095E00E94A83266E676E091
:102DA0000BC08F3F9340B9F062E676E08AE095E091
:102DB0000E94A8326FE576E08AE095E00E94E63254
:102DC00087E6888308C080E007C081E005C082E014
:102DD00003C083E001C08FE7DF91CF910895EF92A8
:102DE000FF920F931F93CF93DF938C017B01EA0136
:102DF000188260E08091A6020E94D82F61E070E006
:102E000080E090E00E94242F8091A6020E94922FE1
:102E10008F3F934041F4BE01C8010E94A9159881DB
:102E2000992311F091C082E0F7018083F70180813E
:102E3000882309F489C0BE01813049F4C801DF91BB
:102E4000CF911F910F91FF90EF900C94A915809155
:102E5000A6020E947C16F801808398819923D9F0FC
:102E60006BE177E08AE095E00E94A83266E177E0C6
:102E70008AE095E00E94A83263E177E08AE095E07D
:102E80000E94A83240E150E068818AE095E00E940B
:102E9000FE338AE658C08F3711F489E654C0BE016C
:102EA0008091A5020E947C16F80181838881882385
:102EB000D9F06FE077E08AE095E00E94A8326AE0FE
:102EC00077E08AE095E00E94A83267E077E08AE048
:102ED00095E00E94A83240E150E068818AE095E0E8
:102EE0000E94FE338BE62FC0BE018091A4020E9497
:102EF0007C16F801828398819923D9F063E077E00A
:102F00008AE095E00E94A8326EEF76E08AE095E0D4
:102F10000E94A8326BEF76E08AE095E00E94A8322A
:102F200040E150E068818AE095E00E94FE338CE643
:102F30000AC0F80191819F3719F08F3729F402C038
:102F40008F3711F081E68883DF91CF911F910F9128
:102F5000FF90EF900895EF92FF920F931F93CF93FE
:102F6000DF93EC01862F7A01FA0110820E94922FE2
:102F70008C01885E9340489710F481E406C0C80134
:102F8000885A9240899720F482E4888381E30FC0B5
:102F9000C801805E9140899710F481E406C0C801A1
:102FA0008C579140C89728F482E4888382E3898310
:102FB00016C06BE576E08AE095E00E94A83267E5EE
:102FC00076E08AE095E00E94A8324AE050E0B8013D
:102FD0008AE095E00E94D93388E6F7018083DF918B
:102FE000CF911F910F91FF90EF9008950F931F9332
:102FF000CF93DF93EC018B01AB016091A3020E94A0
:10300000AB17F8018081811111C0A8016091A20263
:10301000CE0102960E94AB17F8018081811106C093
:103020008A818E5F8A838B818E5F8B83DF91CF91C4
:103030001F910F9108958F929F92AF92BF92CF925E
:10304000DF92EF92FF920F931F93CF93DF93CDB751
:10305000DEB729970FB6F894DEBF0FBECDBF8C0147
:103060006B017A01FA01108281E0FB018083BE01CD
:10307000675F7F4FCE0101960E94EF16F7018081B6
:10308000811162C08985811112C0F60110828DE420
:10309000F80180838EE48183B701C80103960E9402
:1030A000F617F701808181114FC087E047C081305A
:1030B00049F589E4F801808384E481836E01F2E0BC
:1030C000CF0ED11C780184E0E80EF11C4E01E8E03F
:1030D0008E0E911C560161E0F60181916F010E94F4
:1030E000E518F7013197808360E0F50180810E9447
:1030F000E518F7018083F2E0EF0EF11CC814D90443
:1031000049F719C08230C9F482E5F80180838981CA
:103110008B5B83838A818F3721F081E3818384E015
:103120000DC083E3F801818380EB84838B818F5C06
:10313000858386E003C08FE001C083E09FE5F8014E
:103140009283E80FF11D108229960FB6F894DEBF26
:103150000FBECDBFDF91CF911F910F91FF90EF90E8
:10316000DF90CF90BF90AF909F908F900895CF93B6
:10317000DF93FB01DA0110821C92E901188290E8CA
:10318000980F993020F48AE0808384E006C0895843
:10319000843028F482E080838AE08C9303C08AE044
:1031A00080831C92DF91CF910895CF93DF93C0E28B
:1031B000D3E02197CE010E9418360097D1F30E94E8
:1031C000B036CE01DF91CF910895662311F082953C
:1031D0008F708F708A3010F4805D0895895C089537
:1031E0001F93CF93DF93182FEB01188280ED810F8F
:1031F0008A3048F18FE9810F863010F489EA05C0E2
:103200008FEB810F863018F489EC810F1CC068E4C5
:1032100078E08AE095E00E94A83261E478E08AE0F4
:1032200095E00E94A8326EE378E08AE095E00E9483
:10323000A83240E150E0612F8AE095E00E94FE3321
:1032400081E8888380E0DF91CF911F9108950F93EB
:103250001F93CF93DF93EC018B01FB0110829881C8
:10326000EBE2F1E080E0DF0112972C918F5F921387
:103270000AC0398111962C91321305C03A81208100
:10328000321709F452C037968B3069F76AE378E059
:103290008AE095E00E94A8326AE278E08AE095E050
:1032A0000E94A83267E278E08AE095E00E94A832A6
:1032B00040E150E068818AE095E00E94FE3363E2DD
:1032C00078E08AE095E00E94A83261E278E08AE046
:1032D00095E00E94A8326EE178E08AE095E00E94D5
:1032E000A83240E150E069818AE095E00E94FE3317
:1032F0006AE178E08AE095E00E94A83268E178E02F
:103300008AE095E00E94A83265E178E08AE095E0E5
:103310000E94A83240E150E06A818AE095E00E9474
:10332000FE3382E8F801808380E0DF91CF911F9126
:103330000F9108959F92AF92BF92CF92DF92EF923A
:10334000FF920F931F93CF93DF93EB015A01690113
:10335000B7010E942719982ED7018C91811134C092
:103360008FEF890D8A30B8F061E178E08AE095E06E
:103370000E94A83268E078E08AE095E00E94A832D6
:103380004AE050E0692D8AE095E00E94FE3380E833
:10339000F701808319C0292D30E02150310987E0E1
:1033A000829FF001839FF00D1124EB5DFE4F808121
:1033B00088838181D5018C938281D6018C9383810E
:1033C000F8018083892D01C080E0DF91CF911F91AA
:1033D0000F91FF90EF90DF90CF90BF90AF909F90B4
:1033E000089564E078E08AE095E00E94A83262EFF8
:1033F00077E08AE095E00E94E63261E08AE00E9490
:10340000D82F64E08CEA92E00E94D71D81110EC093
:103410006EEE77E08AE095E00E94A8326EED77E0EC
:103420008AE095E00E94E63280E008956AED77E058
:103430008AE095E00E94A8326DEC77E08AE095E0A2
:103440000E94E63281E008951F93CF93DF93EC0151
:10345000162F862F64E60E94A235682F70E04AE09E
:1034600050E0CE010E94D1332AE0812F622F0E94CA
:10347000A235192F0E94A235692F70E04AE050E072
:10348000CE010E94D133612F70E04AE050E0CE01BE
:10349000DF91CF911F910C94D133FF920F931F9323
:1034A000CF93DF9300D000D000D0CDB7DEB78C0132
:1034B000F62E862F82958F70682F70E040E1CE0146
:1034C00001960E94F234BE016F5F7F4FC8010E94D7
:1034D000CD32CE0101960E9415346F2D6F7070E0D1
:1034E00040E1CE0101960E94F234BE016F5F7F4F32
:1034F000C8010E94CD32CE0101960E941534269655
:103500000FB6F894DEBF0FBECDBFDF91CF911F91F4
:103510000F91FF9008950F931F93CF93DF931F9206
:10352000CDB7DEB78C0149830E94CD324981642F2B
:10353000C8010E944D1AC8010F90DF91CF911F91D1
:103540000F910C94E2320F931F93CF93DF93EC0112
:103550008B01E881F9810480F581E02D0995892BA3
:1035600059F0E881F9810680F781E02DCE010995B7
:10357000F801808381E001C080E0DF91CF911F914D
:103580000F910895CF92DF92EF92FF920F931F93C6
:10359000CF93DF9300D0CDB7DEB77C016B018A01FA
:1035A000FA011082BE016E5F7F4F0E94A31A88232A
:1035B00009F4B8C06FEB77E08AE095E00E94A8328A
:1035C00060EB77E08AE095E00E94A8326DEA77E050
:1035D0008AE095E00E94A83240E150E06A818AE0EA
:1035E00095E00E94FE33BE016F5F7F4FC7010E94CE
:1035F000A31A882309F496C069EA77E08AE095E087
:103600000E94A8326AE977E08AE095E00E94A83239
:1036100067E977E08AE095E00E94A83240E150E057
:1036200069818AE095E00E94FE338A818E3020F025
:1036300099819E30B8F023C08D30A1F489818A3001
:1036400089F463E977E08AE095E00E94A83263E8B4
:1036500077E08AE095E00E94E63281E0F60180831F
:1036600080E083C06FE777E08AE095E00E94A832AF
:1036700065E677E08AE095E00E94E63253C0B80143
:103680000E94F0188A83F8018081882379F061E62E
:1036900077E08AE095E00E94A8326CE577E08AE066
:1036A00095E00E94A83269E577E030C065E577E0F3
:1036B0008AE095E00E94A83262E577E08AE095E032
:1036C0000E94A8326FE477E08AE095E00E94A83279
:1036D00040E150E06A818AE095E00E94FE33B80143
:1036E00089810E94F0188983F80180818823E9F09C
:1036F0006BE477E08AE095E00E94A83266E477E028
:103700008AE095E00E94A83263E477E08AE095E0E1
:103710000E94A83240E150E0F80160818AE095E023
:103720000E94FE338AE8F8019ACF6FE377E08AE0DF
:1037300095E00E94A8326CE377E08AE095E00E9471
:10374000A83269E377E08AE095E00E94A83240E180
:1037500050E069818AE095E00E94FE332A81F0E121
:103760002F9F900111248981822B0F900F90DF9160
:10377000CF911F910F91FF90EF90DF90CF90089520
:103780000F931F93CF93DF931F92CDB7DEB78B01BB
:10379000AB01BE016F5F7F4F0E94C21A99819923CE
:1037A00081F069EC77E08AE095E00E94A83263EC52
:1037B00077E08AE095E00E94E6328AE8F8018083AB
:1037C00080E00F90DF91CF911F910F910895CF92DC
:1037D000DF92EF92FF920F931F93CF93DF93EC0151
:1037E0006B017A0189018091A702FA018083F901B6
:1037F0001082E881F9810480F581E02DCE010995E0
:10380000892B19F48091060150C0E881F981068066
:10381000F781E02DCE010995F60180838A3009F405
:1038200042C08D3009F043C0E881F9810480F58100
:10383000E02DCE010995892B69F465E377E08AE0F4
:1038400095E00E94A8326EE277E08AE095E00E945F
:10385000E63225C0E881F9810680F781E02DCE01AE
:103860000995F60180838A30F1F06AE277E08AE018
:1038700095E00E94A83262E277E08AE095E00E943B
:10388000A8326FE177E08AE095E00E94A83240E13B
:1038900050E0F60160818AE095E00E94FE338CE8FA
:1038A000F801808306C080910701F7018083F80149
:1038B0001082DF91CF911F910F91FF90EF90DF90D9
:1038C000CF900895CF93CFB7F8948091AB02811138
:1038D00027C0EEE8F9E08491EAE7F9E09491E82F57
:1038E000F0E0EE0FFF1FE455F64FA591B4918C91D7
:1038F000892321F461E08AE00E94113061E08AE0CE
:103900000E94D82F8CB580618CBD8CB580648CBD35
:1039100061E08DE00E94D82F61E08BE00E94D82FFB
:103920008091AB028F5F8093AB02CFBFCF910895A0
:10393000CF93DF931F92CDB7DEB76983DC01ED91A2
:10394000FC910280F381E02D41E050E0BE016F5F09
:103950007F4F09950F90DF91CF910895CF93DF931B
:10396000EC01898D9A8D009759F0FC011382128227
:103970000E944428E98DFA8D22813381232B31F076
:1039800081E090E09B838A8380E090E0DF91CF919B
:103990000895FC01818D928D009711F00C94E4251F
:1039A0000895CF93DF931F92CDB7DEB741E050E08B
:1039B000BE016F5F7F4F0E94F523019719F4898143
:1039C00090E002C08FEF9FEF0F90DF91CF910895AD
:1039D000FC01818D928D009711F00C94D11C8FEF1A
:1039E0009FEF08950F931F93CF93DF938C01FC01FA
:1039F000818D928D0097B9F00E94D11CEC018F3F10
:103A0000FFEF9F0799F0F801818D928DFC014285AF
:103A100053856485758541505109610971090E947A
:103A20004825CE0105C080E090E002C08FEF9FEFF7
:103A3000DF91CF911F910F910895CF92DF92EF9276
:103A4000FF920F931F93CF93DF93EC017B016A01E9
:103A50001B821A8208EE13E020E030E00C831D8305
:103A60002E833F8386E791E0998388838DE190E000
:103A70000E9418369A8F898F009779F02DE1F7010F
:103A8000DC0101900D922A95E1F74CE050E0B6017F
:103A9000CE010C960E944138188EDF91CF911F9174
:103AA0000F91FF90EF90DF90CF900895FC0113826B
:103AB000128248EE53E060E070E0448355836683F1
:103AC000778386E791E091838083128E118E14862E
:103AD0000895DC015996ED91FC915A97309729F0A1
:103AE000628573858485958508956FEF7FEFCB019F
:103AF0000895DC015996ED91FC915A97309729F081
:103B00006389748985899689089560E070E0CB01A6
:103B10000895CF92DF92EF92FF92CF93DF93EC0163
:103B2000898D9A8D892BD9F0CE010E94791D6B0168
:103B30007C01CE010E94691DA7019601261B370B4F
:103B4000480B590BDA01C901811530E89307A1052B
:103B5000B10538F08FEF9FE7A0E0B0E002C080E051
:103B600090E0DF91CF91FF90EF90DF90CF9008959C
:103B7000CF93DF93EC01898D9A8D009741F00E94DD
:103B80002B26898D9A8D0E94B0361A8E198EDF9160
:103B9000CF910895DC015996ED91FC915A97309799
:103BA00021F081E09581911101C080E008950F938B
:103BB0001F93CF93DF93EC01462F61E00E94BB205F
:103BC000811102C080E01DC08E01045F1F4F41E0E3
:103BD000BE01C8010E948B2D882359F0B801CE0187
:103BE0008A960E94A52391E0811101C090E0892F5F
:103BF00008C040E0BE01C8010E948B2D882311F34C
:103C0000EDCFDF91CF911F910F910895FC01DB0162
:103C100012968D919C9113979383828388E891E00B
:103C20009183808314968C911497848315968C913C
:103C30001597858316964D915D916D917C9119979D
:103C400046835783608771871A964D915D916D9178
:103C50007C911D9742875387648775871E964D9187
:103C60005D916D917C91519746875787608B718BE1
:103C700052968C915297828B53964D915D916D9196
:103C80007C915697438B548B658B768B57964D91D1
:103C90005D916D917C915A97478B508F618F728F98
:103CA0005B968D919C915C97948F838F08954F9232
:103CB0005F926F927F928F929F92AF92BF92CF92BC
:103CC000DF92EF92FF920F931F93CF93DF93CDB7C5
:103CD000DEB7C754D1090FB6F894DEBF0FBECDBF13
:103CE0006C014A013901665D7F4F5E018EE1A80ECD
:103CF000B11CC5010E94061E1C821B8288E891E04F
:103D00009A8389831E828401FE0131967F015A2C99
:103D10004B2C6FE270E0C8010E942F380097E9F148
:103D2000F80120812F3219F40F5F1F4FF2CF801B53
:103D30008D3008F08CE0A82EB12CA501B801CE0181
:103D4000CB960E944138EBE3F0E0EC0FFD1FEA0D4B
:103D5000FB1D1082C7010E942B2621E0AE01455CAD
:103D60005F4F652D742DC7010E945F27811109C027
:103D7000F6011382128288E891E091838083158294
:103D800016C00A0D1B1D852D942D0E942B26C201E5
:103D90005E2C4F2CE92EF82EBCCF08191909F3011F
:103DA00011830083652D742DC6010E94061EC60175
:103DB000C95BDF4F0FB6F894DEBF0FBECDBFDF91FA
:103DC000CF911F910F91FF90EF90DF90CF90BF9018
:103DD000AF909F908F907F906F905F904F900895DD
:103DE0009F92AF92BF92CF92DF92EF92FF920F938A
:103DF0001F93CF93DF93CDB7DEB7C955D1090FB667
:103E0000F894DEBF0FBECDBF7C016B015A01922E2C
:103E10009E01285A3F4FCE01CB960E94571E6A96AC
:103E20000EAD1FAD6A970A0D1B1DF801808181112F
:103E30000AC0BE01655C7F4FCE0101960E94061E3E
:103E400042E851E041C019A218A288E891E09F8F92
:103E50008E8F1BA221968FAD2197811104C0C701BF
:103E60000E94561D37C08250823060F4B601665DF4
:103E70007F4F292DA801CE014E960E945F27811108
:103E800010C0EDCF292DA801BE01655C7F4FCE018A
:103E90004E960E945F27882311F3CE01CB960E9495
:103EA0002B26892D867041F049A95AA96BA97CA9B6
:103EB000CE014E960E944825BE01625E7F4FCE0124
:103EC00001960E94061EA801BE016F5F7F4FC701C9
:103ED0000E941D1DC701C75ADF4F0FB6F894DEBF01
:103EE0000FBECDBFDF91CF911F910F91FF90EF904B
:103EF000DF90CF90BF90AF909F9008951092B10245
:103F00001092B2021092B5021092B70282E090E0D5
:103F1000A0E0B0E08093B8029093B902A093BA02F7
:103F2000B093BB021092CF021092D9021092D80225
:103F300088E891E09093D7028093D6021092DB023A
:103F400008959FB7F8942091AA028091A802213089
:103F500019F48DBB9FBF08958FBF08952091AA02C9
:103F6000222399F03FB7F8942091AA02213059F406
:103F70002DB32093A8024DB32091A90220952423AC
:103F80002DBB3FBF02C03093A8028CBD9DBD0895DC
:103F90008EBD00000DB407FEFDCF8EB508958FEFE6
:103FA0000C94C81F61E0FC0184810E941130809153
:103FB000F502882339F01092F5028091AA0281114E
:103FC0000C94A11F0895CF93DF93EC018091F5022B
:103FD000811109C081E08093F5028091F6029091F1
:103FE000F7020E94AE1F60E08C81DF91CF910C94AC
:103FF0001130CF93DF93EC018E81882389F08F817C
:1040000098859C012F5F3F4F38872F8382309240E5
:1040100018F40E94CF1FF3CFCE010E94D21F1E8240
:10402000DF91CF910895673028F026E1FC012583C8
:1040300080E00895623081F030F4662359F06130F9
:10404000B1F480E515C0643059F040F0653079F482
:1040500082E50EC080E505C081E503C081E508C0AA
:1040600082E58093F60281E08093F702089583E56C
:104070008093F6021092F70281E008950F931F9348
:10408000CF93DF93EB010E94F52E8B010E94CF1F8F
:104090008F3F49F00E94F52E601B710B6C177D0756
:1040A000A8F380E001C081E0DF91CF911F910F91D3
:1040B0000895CF92DF92FF920F931F93CF93DF93D8
:1040C00000D000D0CDB7DEB76C01F62E29833A833D
:1040D0004B835C830E94F91FC6010E94E31F6CE2C0
:1040E00071E0C6010E943E208F2D80640E94C81F8F
:1040F00008E110E05C814B813A812981DA01C90134
:10410000002E04C0B695A795979587950A94D2F787
:1041100029833A834B835C830E94C81F085011098E
:1041200029813A814B815C81083F8FEF180731F775
:10413000FF2029F0E8E0FE1621F08FEF03C085E9AB
:1041400001C087E80E94C81F10E00E94CF1FF6013F
:10415000828787FF04C01F3F11F01F5FF6CF0F90CB
:104160000F900F900F90DF91CF911F910F91FF90C3
:10417000DF90CF900895BF92CF92DF92EF92FF929F
:104180000F931F93CF93DF93EC01B62E1B861986F6
:104190001E821D824C830E94F52E8B0161E08C8172
:1041A0000E94D82F61E08C810E9411300E94621C15
:1041B00082E58093F6021092F7028091F6029091C8
:1041C000F7020E94AE1F2AE0F22E8FEF0E94C81F56
:1041D000FA94D9F78091AA0281110E94A11FCE0101
:1041E0000E94E31F20E030E0A90160E0CE010E94C0
:1041F0005920F82E8A8781E0F81649F00E94F52EA2
:10420000601B710B613D774068F381E04BC02AEA87
:1042100031E040E050E068E0CE010E94592082FF8A
:1042200002C0FB860DC094E0F92E0E94CF1F8A8742
:10423000FA94D9F78A3A11F082E034C082E08B8791
:104240008B85823031F4C12CD12CE12C80E4F82E06
:1042500003C0C12CD12C760120E030E0A90167E336
:10426000CE010E945920A701960169E2CE010E9469
:1042700059208A87882349F00E94F52E601B710B14
:10428000613D774048F388E00DC08B85823031F581
:1042900020E030E0A9016AE3CE010E945920882382
:1042A00081F086E08D83CE010E94D21F80E0DF91F5
:1042B000CF911F910F91FF90EF90DF90CF90BF9023
:1042C00008950E94CF1F807C803C11F483E08B878F
:1042D0000E94CF1F0E94CF1F0E94CF1FCE010E94BD
:1042E000D21F6B2DCE01DF91CF911F910F91FF90C7
:1042F000EF90DF90CF90BF900C9413200F931F93FB
:10430000CF93DF93EC010E94F52E8B010E94CF1F0B
:104310008A878F3F49F40E94F52E601B710B6D3226
:104320007140A0F38FE003C08E3F39F08DE08D83A4
:10433000CE010E94D21F80E001C081E0DF91CF91C9
:104340001F910F910895CF92DF92EF92FF920F93FA
:104350001F93CF93DF93EC0169010115110509F457
:1043600062C0C801820F931F8130924008F05DC087
:104370008E81882371F088819981AA81BB81481739
:1043800059076A077B0729F48F819885C816D906D3
:1043900010F5488359836A837B838B85833039F09A
:1043A00039E0440F551F661F771F3A95D1F79A01E0
:1043B000AB0161E1CE010E945920882319F083E00E
:1043C0008D8333C0CE010E947E21882371F118862F
:1043D0001F8281E08E838F8198858C159D0540F426
:1043E0000E94CF1F8F819885019698878F83F3CF86
:1043F0006701E00EF11ECE14DF0431F00E94CF1FE2
:10440000F60181936F01F7CF8F819885800F911FFF
:1044100098878F832985222319F08115924018F0FF
:10442000CE010E94F91F81E004C0CE010E94D21F7C
:1044300080E0DF91CF911F910F91FF90EF90DF907F
:10444000CF900895EF92FF920F931F93790100E0B0
:1044500012E020E030E00E94A3211F910F91FF9015
:10446000EF900895CF92DF92EF92FF920F931F93F8
:10447000CF93DF9300D0CDB7DEB78C01862F498371
:104480005A830E94C81F4981C42E5A81D52EE12C1F
:10449000F12CF60181916F010E94C81FFFEFEF1A06
:1044A000FF0AE11482E0F806A1F78FEF0E94C81F0F
:1044B0008FEF0E94C81F0E94CF1FF80182878F7163
:1044C000853039F081E18583C8010E94D21F80E0E8
:1044D00001C081E00F900F90DF91CF911F910F915C
:1044E000FF90EF90DF90CF9008950F931F93CF939D
:1044F000DF93EC018901411551056105710511F446
:1045000082E132C08B85833039F089E0440F551F3A
:10451000661F771F8A95D1F79A01AB0168E1CE013A
:104520000E945920882311F084E01EC0A8016EEF7C
:10453000CE010E9432228823C1F068E572E0CE01EC
:104540000E943E20811102C085E10EC020E030E0D3
:10455000A9016DE0CE010E945920811104C00E9482
:10456000CF1F882339F084E18D83CE010E94D21FB2
:1045700080E004C0CE010E94D21F81E0DF91CF9184
:104580001F910F91089580E58093F6021092F70233
:104590000895CF93DF93EC019C012A5F3F4F41E0E8
:1045A00050E060E070E08B8D9C8D0E94202C882371
:1045B000A1F04F89588D698D7A8D452B462B472B5D
:1045C00071F44E815F81688579854F8B588F698F33
:1045D0007A8F8C8180688C8302C080E001C081E08A
:1045E000DF91CF910895CF92DF92EF92FF921F93C8
:1045F000CF93DF93EC010E94C922811102C080E0B9
:104600004BC0EB8DFC8DCE80DF80E884F98482E0A6
:10461000C81AD108E108F108058404C0CC0CDD1CDF
:10462000EE1CFF1C0A94D2F7468557856089718974
:10463000C40ED51EE61EF71E148181E0C81AD108EB
:10464000E108F108112361F0C701B601610F711D86
:10465000811D911D0E946A2A882389F21150F2CF90
:10466000EB8DFC8DC12C82E0D82EE12CF12C058441
:1046700004C0CC0CDD1CEE1CFF1C0A94D2F74B8945
:104680005C896D897E894C0D5D1D6E1D7F1D4B8B78
:104690005C8B6D8B7E8B81E0DF91CF911F91FF90C2
:1046A000EF90DF90CF900895CF93DF93EC01462FEA
:1046B0006E857F85888999890E942F2A882341F0F9
:1046C0008A8920E2829FC00111248F5F9C4F02C023
:1046D00080E090E0DF91CF910895282FFB018BE0DF
:1046E00030E231938150E9F7A22FB92F20E037E073
:1046F0009D91992319F19E3219F0ECE4F8E008C07D
:104700003A3011F128E03AE0F3CF31964917E1F061
:1047100044914111FACF3217B8F04FED490F4E35A1
:1047200098F441E0420FFB01E20FF11D2FE9290F40
:104730002A3108F490529083242FDACF81E0FB01D4
:104740009081903209F480E008950F931F93CF93E6
:10475000DF93EC018B018D81882311F080E040C054
:10476000FB0187898031B1F482E08D831F8A188E26
:10477000198E1A8E408D518D60E070E095E0440FE7
:10478000551F661F771F9A95D1F74B8B5C8B6D8BEE
:104790007E8B15C0803211F783E08D83FB01428D43
:1047A000538D648D758D4F8B588F698F7A8F9E01D5
:1047B0002D5E3F4FC8010E94142B882379F21C8F75
:1047C0000B8F81E08C831E821F82188619861A86C1
:1047D0001B861C861D861E861F86188A198A1A8AC1
:1047E000DF91CF911F910F9108952F923F924F9299
:1047F0005F926F927F928F929F92AF92BF92CF9271
:10480000DF92EF92FF920F931F93CF93DF93EC0110
:104810006B015A018D81811103C08FEF9FEFDAC0C8
:104820008C8180FFFACF4B895C896D897E898A856E
:104830009B85AC85BD852501612C712C8A019B016E
:10484000081B190B2A0B3B0B04151505260537050C
:1048500018F45A01A81AB90A25011E0126E0220EF1
:10486000311C4114510409F47BC04A855B856C8579
:104870007D854A0181E09822ED818A019B01F9E062
:104880003695279517950795FA95D1F78B8D9C8DC1
:10489000E23051F4FC01628D738D848D958D600F33
:1048A000711F821F931F3EC0FC0174807A94702296
:1048B00081149104C9F4711017C0452B462B472B66
:1048C00049F48F89988DA98DBA8D8E839F83A8878F
:1048D000B9870AC04E815F816885798591010E9400
:1048E000902A882309F499CFEB8DFC8D6E817F810E
:1048F000888599856250710981099109058404C0F0
:10490000660F771F881F991F0A94D2F706851785AF
:1049100020893189600F711F821F931F670D711DE0
:10492000811D911D20E032E028193909320124153A
:10493000350508F439012C8126FD04C06114F2E02C
:104940007F06A1F5009108011091090120910A014B
:1049500030910B01601771078207930719F426C085
:10496000C50138C0760183019401AB01BC0180917F
:10497000FF02909100030E94A321882309F44DCFE8
:10498000C60CD71C04C0E81BF90BCE0EDF1E8A85AF
:104990009B85AC85BD85860D971DA11DB11D8A87A0
:1049A0009B87AC87BD87461857085BCF40E00E94C5
:1049B0002F2A882309F431CFC4018F5F9C4FD60181
:1049C0009C01260D371DFC01E217F307E1F241912E
:1049D0004D93FACFDF91CF911F910F91FF90EF9000
:1049E000DF90CF90BF90AF909F908F907F906F900F
:1049F0005F904F903F902F900895FF920F931F93D9
:104A0000CF93DF931F92CDB7DEB78C01FC01858178
:104A1000823018F480E090E034C0F801428553857C
:104A200064857585A5E07695679557954795AA9510
:104A3000D1F7F42FFF70FF2E41E050E0BE016F5F11
:104A40007F4FC8010E94F523019719F4298130E0B6
:104A500002C02FEF3FEF2F3F3F4FE1F2F8014285B9
:104A6000538564857585415E5F4F6F4F7F4F4287E9
:104A7000538764877587F0E2FF9EC00111248F5F22
:104A80009C4F0F90DF91CF911F910F91FF90089550
:104A90004F925F926F927F92AF92BF92CF92DF92CE
:104AA000EF92FF920F931F93CF93DF93EC016A0174
:104AB0007B012D81222309F457C08B899C89AD8904
:104AC000BE8984179507A607B70708F44DC04EC0E6
:104AD0008A859B85AC85BD85EB8DFC8DE585F0E0F9
:104AE0003996AC01BD0141505109610971090E2E81
:104AF00004C076956795579547950A94D2F7970124
:104B00008601015011092109310904C03695279504
:104B100017950795EA95D2F7041715072607370763
:104B2000B0F58F89988DA98DBA8D8E839F83A887C4
:104B3000B987280139015E0186E0A80EB11C411435
:104B400051046104710461F14E815F81688579854A
:104B500095018B8D9C8D0E94902A91E0491A5108F5
:104B6000610871088111EBCF80E01FC02230C1F0D5
:104B7000C114D104E104F10409F0AACF1E821F82FE
:104B8000188619861A861B861C861D860DC0892BE1
:104B90008A2B8B2B31F2041B150B260B370BC9CF3D
:104BA000CA86DB86EC86FD8681E0DF91CF911F917E
:104BB0000F91FF90EF90DF90CF90BF90AF907F90DC
:104BC0006F905F904F9008950F931F93CF93DF9353
:104BD000EC018D818823C9F18C8187FF30C061E0B1
:104BE000CE010E9454238C01009779F18D8182308F
:104BF00048F44B895C896D897E89F801448F558F13
:104C0000668F778F4F89588D698D7A8DF801538F14
:104C1000428F758B648BE091F802F091F902309726
:104C200059F0B8016A5E7F4FC80148960995F801AE
:104C3000808D918D938B828B8C818F778C83DF918C
:104C4000CF911F910F910C94F42980E0DF91CF91C7
:104C50001F910F910895CF93DF93EC010E94E425FB
:104C6000882319F01D8281E001C080E0DF91CF919F
:104C700008954F925F926F927F92AF92BF92CF92C0
:104C8000DF92EF92FF920F931F93CF93DF9300D0A9
:104C900000D0CDB7DEB75C016A017B01FC018581E4
:104CA0008130F1F4848181FF1BC0F50183899489EF
:104CB000A589B68984179507A607B70788F0892BB9
:104CC0008A2B8B2B09F479C0F501428453846484C8
:104CD0007584B701A601C5010E944825811102C053
:104CE00080E06CC0F501838D948DC114D104E10482
:104CF000F10471F44789508D618D728D0E94352DBC
:104D0000882371F3F501178A108E118E128E3AC026
:104D1000F50146815781608571859E012F5F3F4F68
:104D20000E94902A8823E1F249815A816B817C811B
:104D3000F501838D948DFC012789203129F408EF3A
:104D40001FEF20E030E004C008EF1FEF2FEF3FE03F
:104D50004017510762077307A8F40E94352D882376
:104D600009F4BECFF50146815781608571850FEF4B
:104D70001FEF2FEF3FE0838D948D0E947F2B8823C0
:104D800009F4AECFF501C38AD48AE58AF68A848114
:104D900080688483C5010E94E425882309F4A0CF9C
:104DA000B701A6014C145D046E047F0410F4B30136
:104DB000A201C5010E94482501C081E00F900F901B
:104DC0000F900F90DF91CF911F910F91FF90EF9077
:104DD000DF90CF90BF90AF907F906F905F904F909B
:104DE0000895FF920F931F93CF93DF93EC01F42E5E
:104DF00080E2689FF0011124EF5FFC4F8385817191
:104E000029F0842F827411F080E053C06A8B809166
:104E1000080190910901A0910A01B0910B018E87C0
:104E20009F87A88BB98B4489558960E070E0BA01EF
:104E300055274427028D138D20E030E0402B512B65
:104E4000622B732B4F8B588F698F7A8F8385887174
:104E500051F4048D158D268D378D0B8B1C8B2D8B6E
:104E60003E8B81E00CC0803179F69E012D5E3F4F74
:104E70008B8D9C8D0E94142B882331F284E08D83CE
:104E80008F2D8F708C831E821F82188619861A863A
:104E90001B861C861D86F6FE0BC040E050E0BA0162
:104EA000CE01DF91CF911F910F91FF900C94392685
:104EB00081E0DF91CF911F910F91FF900895AF9204
:104EC000BF92CF92DF92EF92FF920F931F93CF93F7
:104ED000DF93CDB7DEB72B970FB6F894DEBF0FBECA
:104EE000CDBF7C016B01CA01B22EF70125812111D2
:104EF000B9C0BE016F5F7F4F0E946D23882309F404
:104F0000B1C0F601838D948DF701948F838FF601E4
:104F100016821782108611861286138614861586CD
:104F2000A12CF60102851385248535858389948912
:104F3000A589B689081719072A073B07E8F545E050
:104F400036952795179507954A95D1F70F70C601A5
:104F50000E94FD24009709F485C0FC0120812223D2
:104F600011F0253EB9F4A1100EC0F701028B40915B
:104F700008015091090160910A0170910B01468767
:104F80005787608B718BFC018081AA24A3948111C7
:104F9000C8CF12C04BE050E0BC01CE0101960E9488
:104FA0001938892B09F0BDCF8B2D8073803309F41C
:104FB00059C04B2D602F52C08B2D8271823109F068
:104FC00051C0AA2041F061E0C7010E9454238C0126
:104FD000009779F447C0F6018581823009F442C018
:104FE000C6010E94F3228823E9F1F701128A01E049
:104FF00013E080E2F80111928A95E9F78BE0FE0157
:105000003196D80101900D928A95E1F7E091F8026E
:10501000F091F902309739F0B801625F7F4FC80113
:105020004096099509C081E298E2F801918B808B46
:1050300080E098E097878687F80180899189938B33
:10504000828B918F808F86859785978B868B0E9428
:10505000F429882339F04B2DF7016289C7010E949A
:10506000F12601C080E02B960FB6F894DEBF0FBE8C
:10507000CDBFDF91CF911F910F91FF90EF90DF9007
:10508000CF90BF90AF9008952F923F924F925F9232
:105090006F927F928F929F92AF92BF92CF92DF9248
:1050A000EF92FF920F931F93CF93DF9300D000D026
:1050B0001F92CDB7DEB78C017B013A01DC0115965A
:1050C0008C9115978130C9F414968C9181FF15C08D
:1050D00082FF1BC0F80143895489658976898285DE
:1050E0009385A485B58584179507A607B70769F04A
:1050F000C8010E944825811108C081E090E0F801B4
:105100009383828380E090E046C1630180C0D80130
:105110005B968D919C915C97FC01F481F150B501F7
:10512000A40129E076956795579547952A95D1F77B
:10513000F423FD8321E09222FF2309F474C080E070
:1051400092E08819990956018C159D0508F45C01B7
:10515000D8015B96ED91FC915C9716962D903D9051
:105160004D905C901997B2E02B1A31084108510814
:10517000058404C0220C331C441C551C0A94D2F72D
:1051800086859785A089B189280E391E4A1E5B1E27
:10519000ED812E0E311C411C511CA114F2E0BF0602
:1051A00009F088C08091080190910901A0910A013D
:1051B000B0910B0182159305A405B50559F48FEF45
:1051C0009FEFDC018093080190930901A0930A01ED
:1051D000B0930B019701B201A1018091FF02909160
:1051E00000030E947522882309F487CF9EEFF91AE5
:1051F000CA18DB08F80182859385A485B5858A0DD8
:105200009B1DA11DB11D82879387A487B587D801F7
:105210001A968D909D90AD90BC901D97C114D104AD
:1052200009F075CF8AC08114910409F088CF1696D1
:105230004D915D916D917C911997411551056105D5
:10524000710559F457968D919D910D90BC91A02DAB
:105250000097A105B10541F521C09E012F5F3F4F89
:105260000E94902A882309F44ECF89819A81AB81CC
:10527000BC81F801238D348DF9012789203129F46F
:1052800048EF5FEF60E070E004C048EF5FEF6FEF62
:105290007FE084179507A607B70730F0C8010E9482
:1052A000C92281114CCF29CFF80186839783A0872B
:1052B000B18745CF8114910429F5D8011A964D91F3
:1052C0005D916D917C911D9753968D919D910D905F
:1052D000BC91A02D481759076A077B0798F00E94D8
:1052E000F429882309F409CF20920801309209019A
:1052F00040920A0150920B018091FE0281608093DE
:10530000FE0208C041E0C201B1010E942F2A882399
:1053100009F4F3CEC4018F5F9C4FD7019C012A0D85
:105320003B1DFC01E217F30719F04D914193FACFB1
:10533000E81BF90BEE0EFF1E5BCF53968D919D91EE
:105340000D90BC91A02DF801248188159905AA051E
:10535000BB0538F4838A948AA58AB68A2068248398
:105360000CC08091F8029091F902892B31F0611400
:10537000710419F02068F8012483D80114968C91E7
:1053800083FD02C0C30107C0C8010E94E425882331
:1053900009F4B3CEF7CF0F900F900F900F900F90AE
:1053A000DF91CF911F910F91FF90EF90DF90CF9001
:1053B000BF90AF909F908F907F906F905F904F9035
:1053C0003F902F900895CF93DF931F92CDB7DEB714
:1053D000698341E050E0BE016F5F7F4F0E94442827
:1053E0000F90DF91CF9108958091FE02882399F16B
:1053F000409108015091090160910A0170910B01DF
:1054000021E033E08091FF02909100030E94752219
:10541000882319F14091FA025091FB026091FC023D
:105420007091FD02411551056105710591F021E072
:1054300033E08091FF02909100030E94752288233F
:1054400061F01092FA021092FB021092FC0210928C
:10545000FD021092FE0281E0089580E00895CF924F
:10546000DF92EF92FF92CF936B017C01C42F80916A
:10547000080190910901A0910A01B0910B018C15CE
:105480009D05AE05BF05D1F00E94F429811102C02F
:1054900080E01AC021E033E0B701A6018091FF024D
:1054A000909100030E942222882391F3C092080168
:1054B000D0920901E0920A01F0920B018091FE0264
:1054C0008C2B8093FE0281E0CF91FF90EF90DF90D4
:1054D000CF900895CF92DF92EF92FF926B017C0103
:1054E0000E94F4298823B1F0E1E0F3E0119285E015
:1054F000E130F807D9F7C0920801D0920901E09293
:105500000A01F0920B018091FE0281608093FE02FD
:1055100081E001C080E0FF90EF90DF90CF90089590
:105520008F929F92AF92BF92CF92DF92EF92FF92B3
:105530000F931F93CF93DF938C016A017B01E901E5
:10554000FC0181859285A385B4850196A11DB11DBD
:1055500084179507A607B70710F480E058C0F80134
:1055600043895489658976898789803129F4BB27E5
:10557000AF2D9E2D8D2D09C0D701C60127E0B69510
:10558000A795979587952A95D1F74C015D01840ED3
:10559000951EA61EB71EC501B4018090080190900B
:1055A0000901A0900A01B0900B01681579058A05E0
:1055B0009B0589F4F8018789803199F4DD24EE2474
:1055C000FF24F601EE0FFF1FEF5FFC4F80819181FA
:1055D000A0E0B0E017C040E00E942F2A8111EACF7E
:1055E000BCCFE894C7F8DD24EE24FF24F601EE0FCB
:1055F000FF1FEE0FFF1FEF5FFC4F80819181A281A3
:10560000B381BF7088839983AA83BB8381E0DF91D4
:10561000CF911F910F91FF90EF90DF90CF90BF90AF
:10562000AF909F908F9008954F925F926F927F926C
:10563000AF92BF92CF92DF92EF92FF920F931F93A0
:10564000CF93DF9300D000D0CDB7DEB78C01498374
:105650005A836B837C835901C12CD12C7601412C58
:1056600042E0542E612C712C49815A816B817C81DE
:105670009E012F5F3F4FC8010E94902A882359F155
:10568000D301C201F801058404C0880F991FAA1F25
:10569000BB1F0A94D2F7C80ED91EEA1EFB1E498111
:1056A0005A816B817C818789803129F488EF9FEF53
:1056B000A0E0B0E004C088EF9FEFAFEFBFE0481775
:1056C00059076A077B0780F2F501C082D182E28226
:1056D000F38281E001C080E00F900F900F900F9057
:1056E000DF91CF911F910F91FF90EF90DF90CF90BE
:1056F000BF90AF907F906F905F904F9008954F92C2
:105700005F926F927F928F929F92AF92BF92CF9251
:10571000DF92EF92FF920F931F93CF93DF93EC01F1
:105720006A017B012801390142305105610571058B
:1057300008F474C049855A856B857C854F5F5F4F3F
:105740006F4F7F4F4C155D056E057F0508F466C0F1
:105750008B889C88AD88BE888F89803129F4772713
:105760006F2D5E2D4D2D09C0B701A601E7E076959E
:10577000679557954795EA95D1F7840E951EA61E15
:10578000B71E409108015091090160910A01709182
:105790000B0184169506A606B70671F48F89803131
:1057A00099F4DD24EE24FF24F601EE0FFF1FEF5FD6
:1057B000FC4F5182408218C040E0C501B4010E94F4
:1057C0002F2A8111EBCF2AC0E894C7F8DD24EE24FC
:1057D000FF24F601EE0FFF1FEE0FFF1FEF5FFC4FE0
:1057E00040825182628273828091FE028160809346
:1057F000FE028A89823080F08D819E81AF81B885DA
:10580000880D991DAA1DBB1D8093FA029093FB027F
:10581000A093FC02B093FD0281E001C080E0DF9123
:10582000CF911F910F91FF90EF90DF90CF90BF909D
:10583000AF909F908F907F906F905F904F90089562
:105840002F923F924F925F926F927F929F92AF9270
:10585000BF92CF92DF92EF92FF920F931F93CF935D
:10586000DF93CDB7DEB760970FB6F894DEBF0FBEFB
:10587000CDBF5C014D875E876F87788B1901D90199
:105880004D905D906D907C904114510461047104C1
:1058900031F0BFEF4B1A5B0A6B0A7B0A10C0FC01A8
:1058A0004080518062807380992493940D851E8579
:1058B0002F853889013011052105310509F0912C1A
:1058C000D50119962D913D914D915C911C972F5FBB
:1058D0003F4F4F4F5F4F29873A874B875C87730154
:1058E00062011D821E821F821886F50181859285C4
:1058F000A385B4850D811E812F813885081719076E
:105900002A073B0708F056C029853A854B855C85F8
:105910002C153D054E055F0550F4A2E0CA2ED12C92
:10592000E12CF12CB2E04B2E512C612C712C9E01FC
:105930002F5F3F4FB701A601C5010E94902A88231F
:10594000C9F149815A816B817C81D701C6010196D9
:10595000A11DB11D452B462B472B19F02C013D01F4
:105960000FC0AC01BD0144195509660977090D85C1
:105970001E852F853889401751076207730779F014
:105980002D813E814F8158852F5F3F4F4F4F5F4F95
:105990002D833E834F8358876C017D01A6CF0FEF87
:1059A0001FEF2FEF3FE0B701A601C5010E947F2B3B
:1059B000811118C080E041C0D701C6010197A1093B
:1059C000B1098D839E83AF83B88797018601AC01AF
:1059D000BD01C5010E947F2B882361F3CD80DE804D
:1059E000EF80F8844C145D046E047F0428F3D10129
:1059F0004D915D916D917C91411551056105710548
:105A000099F4F10140825182628273829920A1F05F
:105A1000FFEF4F1A5F0A6F0A7F0AD5014D925D9220
:105A20006D927C92139708C093018201C5010E9478
:105A30007F2B8111E6CFBECF81E060960FB6F89440
:105A4000DEBF0FBECDBFDF91CF911F910F91FF90B1
:105A5000EF90DF90CF90BF90AF909F907F906F902E
:105A60005F904F903F902F900895AF92BF92CF924A
:105A7000DF92EF92FF920F931F93CF93DF9300D0AB
:105A800000D0CDB7DEB75C016A017B0182E090E017
:105A9000A0E0B0E0F50180839183A283B3839E01EF
:105AA0002F5F3F4FB701A601C5010E94902A8823AE
:105AB00011F100E010E09801B701A601C5010E94B4
:105AC0007F2B8823C1F0C980DA80EB80FC80F50150
:105AD0008789803129F488EF9FEFA0E0B0E004C00F
